:020000040800F2
:10000000284E00208D300008D9080008DB080008C1
:10001000DF080008E3080008E70800080000000007
:10002000000000000000000000000000EB080008D5
:10003000ED08000800000000EF080008F1080008C3
:10004000A7300008A7300008A7300008A730000834
:10005000A7300008A7300008A7300008A730000824
:10006000A7300008A7300008A7300008A730000814
:10007000A7300008A7300008A7300008A730000804
:10008000A7300008A7300008A7300008A7300008F4
:10009000A7300008A7300008A7300008A7300008E4
:1000A000A7300008A7300008A7300008A7300008D4
:1000B000A7300008A7300008A7300008A7300008C4
:1000C000A7300008A7300008A7300008A7300008B4
:1000D000A7300008732C0008872D0008492E00085F
:1000E000A7300008A7300008A7300008A730000894
:1000F000A7300008A7300008A7300008A730000884
:10010000A7300008A7300008A7300008A730000873
:10011000A7300008A7300008A7300008A730000863
:10012000A7300008A7300008A7300008A730000853
:10013000DFF810D004F022FA004800471707000843
:10014000AFF30080284E00202DE9F04107460D4610
:10015000164632463946FDA004F026FC002404E091
:10016000295DFEA004F020FC641CB442F8DBFDA075
:1001700004F01AFC3946FCA004F016FC00240EE042
:10018000285D202807DB285D7E2804DC295DFAA095
:1001900004F00AFC02E0F9A004F006FC641CB4427E
:1001A000EEDBF0A004F000FCBDE8F0812DE9F7479C
:1001B000B5B0C82103A803F08CFD002002900D20EB
:1001C00001900025002402F0B2F88146C8220021E7
:1001D00003A802F0FEF90322002102A802F0F9F9B7
:1001E000E748006842F21071884202DD0020E449CD
:1001F0000860E34908680968491CE14B196003F08D
:1002000086FF064602F06AF882465246DDA148465D
:1002100001F03AFF9DF8D50003F08AFF064602F090
:100220005DF882465246D8A1484601F02DFF9DF860
:10023000D60003F07DFF064602F050F88246524693
:10024000D2A1484601F020FF9DF8D40003F070FFD2
:10025000064602F043F882465246CDA1484601F0D8
:1002600013FF379803F053FF064602F037F8824633
:100270005246C9A1484601F007FF484601F086FEF4
:1002800080464146C7A004F08FFB404603F036FD90
:10029000054605F10F00C11700EB117109110C01A2
:1002A000C64B224603A9404602F0CEFBAA208DF899
:1002B0000800200A8DF80900E0B28DF80A00032139
:1002C00002A802F0C8FEA1B203A802F0C4FE2246B2
:1002D00003A9BBA0FFF738FF012101A802F0BBFE74
:1002E000484600F082FC404602F0FDF938B0BDE817
:1002F000F08738B50446002000906A46B5A1204634
:1003000003F02AFD009838BD2DE9F047B6B08046CD
:100310000E46C82101A803F0DCFC4FF00009CA46D4
:1003200000250020339034903590C822002101A888
:1003300002F04FF932464146A9A0FFF705FF06F14A
:100340000F00C11700EB117109114FEA01199B4B06
:100350004A4601A9404602F096FB00BF00BF07E0F5
:1003600001A8405D7D2802D105F1010A02E06D1C63
:100370004D45F5DB00BFBAF1000F05D19EA004F09A
:1003800013FB36B0BDE8F087002001A901F80A0090
:10039000A0A004F009FB01A9A4A004F005FB01A999
:1003A000A9A004F001FB01A801F028FA07461FB933
:1003B000A7A004F0F9FAE4E772A1384601F025FE9F
:1003C00004460CB16069349073A1384601F01DFEFB
:1003D00004460CB1606935906DA1384601F015FEF8
:1003E000044614B1207D8DF8CC0067A1384601F099
:1003F0000CFE0446C4B16069012815D19DF8CC00FB
:10040000012811D1974908608DF8CE0000208DF8A1
:10041000CD0033A807C8FFF7C9FE642002F0A1FB96
:1004200000209149C1F8940158A1384601F0EDFD32
:10043000044674B1606901280BD100208B49087013
:100440008B4908709DF8CC00012802D1BE20894953
:100450000860384600F0C9FB00BF92E770B505465A
:100460000E460024844800210160416081602946D5
:1004700082A004F099FA64247E480068012809DB10
:100480007C480068401E7B490860084601687CA0E3
:1004900004F08AFA81A1284603F037FC10B1B4F5C4
:1004A000C87F22DD7E480068401C7D490860084600
:1004B000006800EB800042010846016879A004F062
:1004C00073FA00206749091D0860754800683C28D8
:1004D0000ADD0020091D08607AA004F065FA0020FA
:1004E0007E4908606E49086070BDB4F5967F2BDACE
:1004F0007A480068401C794908600846006800EBAB
:100500008000420123460846016875A004F04CFAB9
:1005100072480068192817DD012052490831086027
:1005200054480068012802DC01205049087001206D
:100530004C49091D08600020684908605849086056
:1005400001204D490870DFE0E3E000000D0A5B2563
:10055000735D206C656E3D25643A2000253032586D
:10056000200000000D0A00005B25735D204153430D
:1005700049493A2000000000256300002E000000D9
:100580002000002073657100726571007273700045
:10059000666C6F6F7200000064697374616E6365EE
:1005A000000000000D0AC4FAB7A2CBCDB5C4CFFB42
:1005B000CFA2CEAA3A25730D0A0000001000002039
:1005C00073656E6420456E6372797074656420444F
:1005D0006174610064697374616E63653A256400D7
:1005E000526563656976656420456E6372797074DF
:1005F00065642044617461004A534F4E20656E6407
:10060000206D61726B6572206E6F7420666F756EFF
:10061000640D0A000D0A72656376206D73672865A4
:100620006E63727970746564293A00000D0A726510
:100630006376206D7367286465637279707465648E
:10064000293A25730D0A000025730D0A00000000E9
:100650004A534F4E207061727365206661696C6504
:10066000640D0A0094812142008021422400002070
:100670002500002030000020A0000020257300008D
:10068000736C656570696E6720736C6565705F6318
:100690006F756E742025640D0A0000004F464600F9
:1006A0002C0000206E6F2070656F706C6520636F8A
:1006B000756E742025642074696D65202564206D35
:1006C000730D0A006E6F2070656F706C6520636C2F
:1006D00065617220636F756E740D0A00280000203A
:1006E000686176652070656F706C6520636F756EEC
:1006F000742025642074696D652025642064697305
:100700002025640D0A00000048700020887008460B
:10071000846000BFE8E600245F4802F05CF902F064
:10072000E3F94FF4A06003F047FA00F0D3F902F0C8
:100730000FF80221594802F0AEFD054615B1012D12
:100740001DD10FE00020564908604FF4165002F00A
:1007500044FA4FF4E13002F0C9FA4FF4165002F0B7
:10076000E5FB0CE000204E49083908604FF41650B4
:1007700002F033FA4FF4165002F0D8FB00BF00BF6E
:10078000294648A004F010F985E0601C84B20A20D4
:1007900002F0E7F915B1012D7CD153E0464800780D
:1007A000A0B94648008800F4004078B1434800886A
:1007B000C6B231464248FFF751FE3222002140487E
:1007C00001F007FF00203D49088002E001203D497B
:1007D00008603D48008800F4004098B10020394985
:1007E000086039480088C6B231463848FFF78CFDAA
:1007F0004FF480720021354801F0EBFE00203249B1
:10080000088002E001202F4908602B480078012869
:1008100017D10A2094FBF0F100FB114088B92C4855
:100820000078401C2A490870084600780A2803DB33
:1008300000200870204908700024264807C8FFF7E8
:10084000B5FC27E01E2094FBF0F100FB114040B9FD
:100850001C48006808B9012000E000201949086020
:1008600000241948008800F4004090B10020154988
:10087000086015480088C6B231461448FFF744FDA9
:100880004FF480720021114801F0A3FE00200E49B0
:10089000088000BF00BF78E700000020000C014086
:1008A0009C81214273797374656D207374617274D5
:1008B0002025640D0A0000002400002072000020A2
:1008C000C0450020B40122427400002024460020CC
:1008D00025000020A0000020704700BFFEE700BFF9
:1008E000FEE700BFFEE700BFFEE7704770477047B6
:1008F000704700000CB50020019000906C48006823
:1009000040F480306A49086000BF6948006800F41C
:10091000003000900198401C0190009818B901988F
:10092000B0F5A06FF1D16248006800F4003010B15A
:100930000120009001E0002000900098012843D1A0
:100940005C48006840F010005A490860084600689A
:1009500020F0030008600846006840F002000860CC
:100960005348406852494860084640684860084615
:10097000406840F4806048600846406820F47C107D
:1009800048600846406840F4E8104860084600683F
:1009900040F08070086000BF4548006800F00070BB
:1009A0000028F9D04248406820F0030040494860E0
:1009B0000846406840F00200486000BF3C4840687C
:1009C00000F00C000828F9D10CBD10B5FFF792FF1C
:1009D00010BD10B53648006840F001003449086089
:1009E0000846406834490840314948600846006874
:1009F000324908402E4908600846006820F48020EB
:100A000008600846406820F4FE0048604FF41F006C
:100A10008860FFF7DAFF4FF000602949086010BDD9
:100A200010B5002100200022214B5B6803F00C016F
:100A300021B1042906D0082928D107E0214B224CF6
:100A4000236027E01F4B204C236023E0184B5B689A
:100A500003F47010164B5B6803F48032022303EB3F
:100A6000904022B9194B4343174C23600DE0104BC3
:100A70005B6803F4003323B1144B4343124C2360EF
:100A800003E0104B4343104C236003E00D4B0E4C2E
:100A9000236000BF00BF064B5B68C3F303130C4C1D
:100AA000E15C094B1B68CB40074C236010BD000084
:100AB00000100240002002400000FFF8FFFFF6FE99
:100AC00008ED00E000127A003400002000093D002B
:100AD0003800002008B50121182002F005FE4FF46F
:100AE0000050ADF8000010208DF8030003208DF8B1
:100AF00002006946094802F03BFB4FF400510748E9
:100B000002F0E3FBE020ADF800006946044802F083
:100B10002FFBE021024802F0D8FB08BD0010014085
:100B2000000C0140FE480068704770B504460D4651
:100B30002CB9AC4201D0012070BD0020FCE70DB9FA
:100B40000120F9E705E0207808B90020F4E7641CEB
:100B50006D1C207803F09EF80646287803F09AF87A
:100B60008642F0D0207803F095F80646287803F006
:100B700091F8301AE0E770B50446204603F0BEF85D
:100B8000451C2846E7490968884706460EB90020F3
:100B900070BD2A462146304603F082F83046F7E71A
:100BA00030B9E149DF4A1160E049E14A116070471C
:100BB000016809B1016800E0DE49DA4A1160416864
:100BC00009B1416800E0DC49D94A116000BFEEE795
:100BD00010B52820D3490968884704461CB128214C
:100BE000204603F076F8204610BD70B5044622E09A
:100BF0002568A08900F4807020B9A06810B1A068B1
:100C0000FFF7F3FFA08900F4807028B9206918B1BC
:100C1000C749206909688847A08900F4007028B98D
:100C2000206A18B1C249206A096888472046C0492D
:100C3000096888472C46002CDAD170BD2DE9F04FA9
:100C40008BB083468A460020044605460026BB4FEB
:100C50000021884689460990012008909AF80000F2
:100C60002D2802D1B64F0AF1010A9AF80000302867
:100C700001D10AF1010A9AF80000312822DB9AF822
:100C8000000039281EDC00BF1AF8011BA1F130005A
:100C900003F03DFA0022AB4BCDE906012046294680
:100CA00003F0C3F9CDE90401DDE9062303F016F9E9
:100CB00004460D469AF80000302803DB9AF800003D
:100CC0003928E1DD9AF800002E2830D19AF8010089
:100CD00030282CDB9AF80100392828DC0AF1010AB7
:100CE00000BF1AF8011BA1F1300003F010FA002236
:100CF000944BCDE906012046294603F096F9CDE94B
:100D00000401DDE9062303F0E9F804460D4600225C
:100D10008A4B4046494603F082F9804689469AF854
:100D20000000302803DB9AF800003928D9DD9AF852
:100D30000000652803D09AF80000452823D10AF165
:100D4000010A9AF800002B2802D10AF1010A08E0F2
:100D50009AF800002D2804D14FF0FF3008900AF1D6
:100D6000010A08E01AF8010B3038099901EB8101FA
:100D700000EB410009909AF80000302803DB9AF854
:100D800000003928EEDDDDE9082101FB02F003F067
:100D9000BEF942464B46CDE9000103F09FF80246FA
:100DA0000B46CDE902010020664904F0E9FB22462A
:100DB0002B46CDE906013046394603F036F9CDE938
:100DC0000401DDE9062303F030F904460D46CBE9C2
:100DD00006452046294603F0B8F9CBF81400032055
:100DE000CBF80C0050460BB0BDE8F08F0146491E11
:100DF00041EA610141EAA10141EA211141EA2121CF
:100E000041EA2141481C70472DE9F04104460E4655
:100E10000CB1206810B90020BDE8F081A06806443C
:100E20006068B04203DBA16820680844F4E73046FC
:100E3000FFF7DCFF074638463A4909688847054608
:100E40003DB93B4920680968884700206060206000
:100E5000E2E725B12846D4E9001202F021FF344927
:100E600020680968884767602560A0682844D3E740
:100E700070B504460CB1206808B9002070BDA168A7
:100E800020684518284602F039FFA1680844F5E7B4
:100E90002DE9FC4782460E464FF00009DAE9064587
:100EA000002213462046294603F082F913D12EB1C1
:100EB00002213046FFF7A8FF814604E002201949CD
:100EC000096888478146B9F1000F03D01EA0008849
:100ED000A9F80000A4E0DAF8140003F018F90746B6
:100EE00022462B4603F09BF821F000410022174BCD
:100EF000CDE9000103F05CF943D8154A154B2046B3
:100F0000294603F055F93CD80022134B20462946C8
:100F100003F066F935D816B1152130461EE021E000
:100F2000480000204C00002015550008C55400085A
:100F300050000020FF260008E72600080000F03FD0
:100F40000000F0BF00002440300000000000B03C72
:100F50000000C0FFFFFFDF410000E0C1FFF754FFCA
:100F6000814604E01520FA49096888478146B9F1AD
:100F7000000F55D0F7A14846DAF8142003F024FDFD
:100F80004EE02EB140213046FFF73EFF814604E09F
:100F90004020EF49096888478146B9F1000F3FD0EA
:100FA0002046294604F020FA074622462B4603F045
:100FB00036F821F000410022E74BCDE9000103F0B3
:100FC000F7F80FD825F000412746E44AE44B3846AD
:100FD00003F0EEF806D222462B46E2A1484603F083
:100FE000F3FC1DE025F000412746E04AE04B38467F
:100FF00003F0DEF807D325F000410022DD4B384630
:1010000003F0EEF806D222462B46DBA1484603F059
:10101000DBFC05E022462B46D8A1484603F0D4FC71
:101020004846BDE8FC87014600220878302806DBE8
:101030000878392803DC08783038024415E008784D
:10104000412806DB0878462803DC08783738024454
:101050000BE00878612806DB0878662803DC08784E
:101060005738024401E0002070471201491C0878FB
:10107000302806DB0878392803DC08783038024449
:1010800015E00878412806DB0878462803DC087854
:10109000373802440BE00878612806DB08786628B8
:1010A00003DC08785738024401E00020DCE7120135
:1010B000491C0878302806DB0878392803DC0878D2
:1010C0003038024415E00878412806DB08784628C5
:1010D00003DC0878373802440BE00878612806DB27
:1010E0000878662803DC08785738024401E00020BD
:1010F000BAE71201491C0878302806DB087839283D
:1011000003DC08783038024415E00878412806DB13
:101110000878462803DC0878373802440BE0087862
:10112000612806DB0878662803DC08785738024413
:1011300001E0002098E7104696E72DE9F05F83462E
:10114000884608F10104002798F80000222805D0FD
:101150008B48C0F800800020BDE8F09F04E014F840
:10116000011B5C2900D1641C2078222804D020783F
:1011700010B1781C071EF2D1781C754909688847A0
:101180008146B9F1000F01D10020E5E708F1010423
:101190004D469EE020785C2804D014F8010B05F839
:1011A000010B96E0641C2078722818D006DC6228B7
:1011B00009D066280BD06E287ED10CE0742812D09E
:1011C0007528F9D113E0082005F8010B7FE00C2009
:1011D00005F8010B7BE00A2005F8010B77E00D20F4
:1011E00005F8010B73E0092005F8010B6FE0601CA6
:1011F000FFF719FF0646241DB6F55C4F02D3B6F57E
:10120000604F00D306B962E0B6F5584F1CD3B6F56F
:101210005C4F19D260785C2802D1A078752800D084
:1012200055E0E01CFFF7FFFE8246A41DBAF55C4FB7
:1012300002D3BAF5604F00D349E0C6F30901504626
:1012400061F39F2000F580360427802E01D201270C
:1012500008E0B6F5006F01D2022703E0B6F5803F43
:1012600000D203273D44012F20D0022F15D0032F99
:101270000AD0042F24D106F0BF0040F08001681E80
:1012800005460170B60900BF06F0BF0040F08001BE
:10129000681E05460170B60900BF06F0BF0040F0A9
:1012A0008001681E05460170B60900BF3548C05D63
:1012B0003043C1B2681E00E005E00546017000BF82
:1012C00000BF3D4403E0207805F8010B00BF00BFDC
:1012D000641C2078222803D0207800287FF45AAF9D
:1012E000002028702078222800D1641CCBF81090B0
:1012F0000420CBF80C0020462EE72DE9F05F804655
:1013000089460027BB46454611E02878002802DDC3
:101310002878202805DB2878222802D028785C2825
:1013200001D1012000E0002040EA0B0B6D1C287861
:101330000028EAD1BBF1000F3ED1A5EB0807B9F1B7
:10134000000F21D0F91C4846FFF75EFD064620E05D
:101350004C000020256400000000B03C44F3C2E4CF
:10136000E4E9634C252E3066000000008DEDB5A049
:10137000F7C6B03E65CDCD4125650000256600006D
:1013800048000020A45F0008F81CF7490968884756
:10139000064616B90020BDE8F09F3446222004F826
:1013A000010B4146204602F0BEFC2220E055002100
:1013B000781C21543046EEE7B8F1000F16D1B9F190
:1013C000000F05D003214846FFF71EFD064604E046
:1013D0000320E5490968884706460EB90020DAE788
:1013E000E2A1304602F09FFC3046D4E74546002794
:1013F00095F800A00EE07F1C5146DDA002F074FCC1
:1014000008B17F1C03E0BAF1200F00DA7F1D6D1CCC
:1014100095F800A0BAF1000FEDD1B9F1000F05D099
:10142000F91C4846FFF7F0FC064604E0F81CCE49DC
:101430000968884706460EB90020ACE734464546A1
:10144000222004F8010B47E028781F280ADD2878BD
:10145000222807D028785C2804D015F8010B04F85E
:10146000010B39E05C2004F8010B15F8011B8A46DA
:101470000C2919D006DC082912D0092920D00A2904
:1014800022D115E00D2917D0222905D05C291BD1C6
:101490005C2004F8010B1EE0222004F8010B1AE086
:1014A000622004F8010B16E0662004F8010B12E03C
:1014B0006E2004F8010B0EE0722004F8010B0AE024
:1014C000742004F8010B06E05246ABA1204603F05D
:1014D0007BFA641D00BF00BF28780028B4D1222009
:1014E00004F8010B002004F8010B304653E770B5F7
:1014F00004460D4629462069FFF7FFFE70BD00E057
:10150000401C20B1017811B101782029F8DD704725
:101510002DE9F04706460C4620787B2804D09848F1
:1015200004600020BDE8F0870620F060601CFFF733
:10153000E6FF044620787D2801D1601CF2E7FFF722
:1015400047FB0546B060B06808B90020EAE72046CE
:10155000FFF7D5FF804641462846FFF7EEFD0746D8
:10156000FFF7CDFF04460CB90020DBE728692862AD
:101570000020286120783A2803D0814804600020A8
:10158000D0E7601CFFF7BBFF80464146284600F0CD
:101590009BF80746FFF7B3FF04460CB90020C1E7EC
:1015A00032E0FFF715FB07460FB90020BAE72F60BE
:1015B0007D603D46601CFFF7A2FF814649462846F4
:1015C000FFF7BBFD8046FFF79AFF04460CB90020E9
:1015D000A8E7286928620020286120783A2803D0EB
:1015E0006748046000209DE7601CFFF788FF814684
:1015F0004946284600F068F88046FFF780FF044619
:101600000CB900208EE700BF20782C28C9D02078A4
:101610007D2801D1601C85E759480460002081E7DE
:101620002DE9F04705460C4620785B2804D0544845
:1016300004600020BDE8F0870520E860601CFFF72B
:101640005EFF044620785D2801D1601CF2E7FFF7B9
:10165000BFFA0646A860A86808B90020EAE7204655
:10166000FFF74DFF80464146304600F02DF8074613
:10167000FFF745FF04460CB90020DBE718E0FFF751
:10168000A7FA07460FB90020D4E737607E603E46D0
:10169000601CFFF734FF81464946304600F014F8DD
:1016A0008046FFF72CFF04460CB90020C2E700BFBC
:1016B00020782C28E3D020785D2801D1601CB9E780
:1016C0002F4804600020B5E770B505460C460CB9FC
:1016D000002070BD04222BA1204602F02DFB18B97A
:1016E0000220E860201DF4E7052228A1204602F030
:1016F00023FB18B90020E860601DEAE7042225A159
:10170000204602F019FB20B90120E8606861201D25
:10171000DFE72078222804D121462846FFF70DFD77
:10172000D7E720782D2805D02078302807DB2078CF
:10173000392804DC21462846FFF780FAC9E72078DB
:101740005B2804D121462846FFF76AFFC1E72078CD
:101750007B2804D121462846FFF7DAFEB9E708487E
:1017600004600020B5E700004C00002022220000A9
:10177000225C080C0A0D0900752530347800000041
:10178000480000206E756C6C0000000066616C7390
:101790006500000074727565000000002DE9F047D7
:1017A00080460D4616460024FFF712FA0746002031
:1017B000FE4908600FB9BDE8F0874046FFF79FFE7D
:1017C000814649463846FFF77FFF044624B938462C
:1017D000FFF70BFA0020EEE766B12046FFF78FFE19
:1017E0000446207830B13846FFF7FFF9EF4804602F
:1017F0000020E0E705B12C603846DCE710B5044670
:10180000002211462046FFF7C9FF10BD2DE9FF4F0A
:1018100089B0884616461F4600200890079006901B
:101820004FF0070A00250998D0F808900020029090
:101830000190009004E00298401C0290D9F80090BA
:10184000B9F1000FF7D10298002835D157B116B180
:1018500008F1040000E0032001463846FFF7D4FAFF
:10186000069009E016B108F1040100E003210846E2
:10187000CF49096888470690069818B900200DB02E
:10188000BDE8F08F069C7B2004F8010B66B10A20AE
:1018900004F8010B002503E0092004F8010B6D1C7E
:1018A000A8F10100A842F7DC7D2004F8010B00201C
:1018B00004F8010B0698E2E7002F77D0BD680EB15F
:1018C000022000E0012082460AF101013846FFF7BC
:1018D0009BFA04460CB90020D1E77B2004F8010BE9
:1018E00016B10A2004F8010B00202070B86850449B
:1018F000B8600998D0F8089008F1010868E0B6B11E
:1019000041463846FFF780FA04460CB90020B6E796
:101910000020039005E0092004F8010B0398401C07
:10192000039003984045F6DBB8684044B8603946F8
:10193000D9F82000FFF7E1FC3846FFF799FAB860C4
:101940000EB1022000E00120824651463846FFF7E2
:101950005BFA04460CB9002091E73A2004F8010B29
:1019600016B1092004F8010BB8685044B8603B4632
:1019700032464146484600F078FA3846FFF778FA92
:10198000B8600EB1012000E00020D9F8001009B1C4
:10199000012100E0002100EB010A0AF101013846B3
:1019A000FFF732FA044614B9002068E734E0D9F8AA
:1019B000000010B12C2004F8010B16B10A2004F825
:1019C000010B00202070B8685044B860D9F800902E
:1019D000B9F1000F93D116B108F1010000E0022027
:1019E00001463846FFF710FA04460CB9002046E7D6
:1019F0004EB1002503E0092004F8010B6D1CA8F18D
:101A00000100A842F7DC7D2004F8010B00202070C3
:101A100038682844069005E10299880064490968FD
:101A200088470890089808B9002028E7029988009C
:101A30005F49096888470790079828B95D49089861
:101A40000968884700201AE702988100089802F088
:101A500040F902988100079802F03BF90998D0F804
:101A6000089008F1010806B1C2442EE00021D9F81F
:101A70002000FFF742FC0490079941F8250000235D
:101A800032464146484600F0F0F929466D1C059063
:101A9000089A42F82100049898B1059888B10598F1
:101AA00002F02CF98346049802F028F90BEB0001B0
:101AB000891C16B108F1020000E0002008448244AD
:101AC00001E001200190D9F80090B9F1000FCDD1CB
:101AD000019820B95046364909688847069006980B
:101AE00008B901200190019818B3002514E0079867
:101AF00050F8250028B1079951F825002D490968AB
:101B00008847089850F8250028B1089951F8250011
:101B10002849096888476D1C02988542E7DB2549FA
:101B2000079809688847234908980968884700206A
:101B3000A5E67B21069801700698441C16B10A2080
:101B400004F8010B0020207000254FE05EB100205A
:101B5000039005E0092004F8010B0398401C039052
:101B600003984045F6DB079951F8250002F0C6F8C6
:101B70000090079850F825102046009A02F090F83F
:101B8000009804443A2004F8010B16B1092004F827
:101B9000010B089850F82510204602F0C4F8089967
:101BA00051F8250002F0AAF8044405E0480000209E
:101BB0004C000020500000200298401EA84202D095
:101BC0002C2004F8010B16B10A2004F8010B0020A8
:101BD0002070079951F82500FE490968884708993F
:101BE00051F82500FB49096888476D1C0298854219
:101BF000ACDBF849079809688847F64908980968EE
:101C000088474EB1002503E0092004F8010B6D1C44
:101C1000A8F10100A842F7DC7D2004F8010B0020A8
:101C200004F8010B06982AE62DE9FF4F85B092468D
:101C30001E464FF0000B052003900598D0F8088051
:101C4000D946002500200290019003E009F1010926
:101C5000D8F80080B8F1000FF8D1B9F1000F16D113
:101C60002EB103213046FFF7CFF8834604E003206E
:101C7000D949096888478346BBF1000F03D0D7A133
:101C8000584602F050F8584609B0BDE8F08F002ED3
:101C900057D0B56801213046FFF7B6F804460CB9B5
:101CA0000020F1E75B202070B068401CB060059810
:101CB000D0F808802EE0334652460699491C40462B
:101CC00000F0D3F83046FFF7D3F8B060D8F8000042
:101CD000F0B1BAF1000F01D0022000E00120039022
:101CE0000399491C3046FFF78FF804460CB90020D1
:101CF000CAE72C2004F8010BBAF1000F02D0202013
:101D000004F8010B00202070B16803980844B0600B
:101D1000D8F80080B8F1000F02D002980028CAD08D
:101D200002213046FFF770F804460CB90020ABE7FB
:101D30005D2004F8010B00202070306800EB050BDB
:101D400091E04FEA8900A4490968884707460FB91E
:101D5000002099E74FEA8901384601F0BAFF05985B
:101D6000D0F8088021E0002352460699491C4046DD
:101D700000F07BF8049029466D1C049847F8210078
:101D8000049870B1049801F0B9FF801CBAF1000FFB
:101D900001D0012100E00021014403980844039090
:101DA00001E001200290D8F80080B8F1000F02D0C5
:101DB00002980028D7D0029820B98749039809686B
:101DC00088478346BBF1000F01D1012002900298A1
:101DD00090B1002508E057F8250020B157F82500FC
:101DE0007C49096888476D1C4D45F4DB38467949C4
:101DF00009688847002047E75B208BF800000BF15B
:101E0000010400202070002521E057F8250001F092
:101E100075FF019057F825102046019A01F040FF08
:101E200001980444A9F10100A8420AD02C2004F82A
:101E3000010BBAF1000F02D0202004F8010B0020A2
:101E4000207057F825006349096888476D1C4D4587
:101E5000DBDB38465F49096888475D2004F8010BE1
:101E6000002004F8010B58460EE72DE9F041044626
:101E70000F4690461D46002614B90020BDE8F081AB
:101E8000002D49D0207B072845D2DFE800F0101C48
:101E900004282E343C0005212846FEF7B5FF0646EF
:101EA00026B1AFF22071304601F03DFF33E006214C
:101EB0002846FEF7A9FF064626B1AFF2307130463C
:101EC00001F031FF27E005212846FEF79DFF064679
:101ED00026B1AFF24071304601F025FF1BE02946E4
:101EE0002046FEF7D5FF064615E029462046FFF7B7
:101EF000FEFA06460FE02B46424639462046FFF7DB
:101F000093FE064607E02B46424639462046FFF739
:101F10007DFC064600BF37E0207B072833D2DFE890
:101F200000F00A1004161C222A00AFF2A870FEF777
:101F300022FE064627E0AFF2AC70FEF71CFE064616
:101F400021E0AFF2B070FEF716FE06461BE000215E
:101F50002046FEF79DFF064615E000212046FFF7CC
:101F6000C6FA06460FE00023424639462046FFF7F0
:101F70005BFE064607E00023424639462046FFF74F
:101F800045FC064600BF00BF304677E710B5044663
:101F90000023012219462046FFF767FF10BD10B548
:101FA000044600231A4619462046FFF75EFF10BD7F
:101FB000FEB505460C46164620460749096888477F
:101FC00000900194002002906B4632460021284682
:101FD00006E00000500000204C0000205B5D000087
:101FE000FFF743FFFEBD01468A68002001E0401C68
:101FF0001268002AFBD170470246906801E0491E32
:10200000006808B10029FADC704770B505460E4635
:10201000AC6800E024682CB13146206AFEF785FDEB
:102020000028F7D1204670BD01604860704770B548
:102030000546FEF7CDFD04460CB9002070BD2822F0
:102040002946204601F02CFE00202062E06840F482
:102050008070E0600020606020602046EEE770B590
:1020600005460E46AC6806B970BD0CB9AE6009E015
:1020700000E0246814B120680028FAD131462046D7
:10208000FFF7D2FF00BFEFE770B506460D461446D6
:1020900004B970BD206A18B1FE49206A09688847F2
:1020A0002846FEF768FD206221463046FFF7D7FF3D
:1020B00000BFEEE770B506460D46144604B970BD84
:1020C000A08900F4007028B9206A18B1F149206A8B
:1020D000096888472562E06840F40070E0602146A6
:1020E0003046FFF7BCFF00BFE9E770B505460C4678
:1020F0002046FFF79CFF064631462846FFF7AFFF14
:1021000070BD2DE9F04105460E4614462046FFF706
:102110008EFF07463A4631462846FFF7B5FFBDE831
:10212000F08110B502460B46916801E009685B1E1C
:1021300009B1002BFADC09B9002010BD486810B1C4
:10214000D1E900042060086810B1D1E90040606066
:102150009068884201D1086890600020086048605B
:102160000846EAE770B504460D4629462046FFF7C3
:10217000D8FF0646FEF739FD70BD2DE9F041054652
:102180000F460026AC6801E0761C24682CB1394665
:10219000206AFEF7CAFC0028F6D12CB13146284649
:1021A000FFF7BFFFBDE8F0810020FBE770B50446F4
:1021B0000D4629462046FFF7E0FF0646FEF715FDCF
:1021C00070BD2DE9F04106460F461446B56801E0A2
:1021D0002D687F1E0DB1002FFADC2DB92146304647
:1021E000FFF73DFFBDE8F0812560686860606C60C6
:1021F000B068A84201D1B46001E06068046000BF2B
:10220000F0E72DE9F04106460F461446B56801E0B7
:102210002D687F1E0DB1002FFADC0DB9BDE8F081ED
:102220002868206068686060206808B120684460A1
:10223000B068A84201D1B46001E060680460002089
:10224000686028602846FEF7D0FC00BFE6E72DE96D
:10225000F04105460E4617464FF00008AC6802E014
:1022600008F1010824682CB13146206AFEF75DFCB4
:102270000028F5D144B13046FEF77DFC38623A467D
:1022800041462846FFF7BDFFBDE8F08110B5FEF7D7
:102290009FFC04460CB10220E060204610BD10B542
:1022A000FEF796FC04460CB10120E060204610BD0C
:1022B00010B5FEF78DFC04460CB10020E06020460E
:1022C00010BD70B50546FEF783FC044624B10DB180
:1022D000012000E00020E060204670BD70B505469A
:1022E0000E46FEF775FC044644B10320E060C4E9E5
:1022F00006562846314601F028FF6061204670BD31
:1023000070B50546FEF764FC04462CB10420E0607D
:102310002846FEF730FC2061204670BD10B5FEF760
:1023200057FC04460CB10520E060204610BD10B5F6
:10233000FEF74EFC04460CB10620E060204610BDBE
:102340002DE9F05F81468A460025AB46FFF7E6FFA0
:102350000646002410E059F8240001F0D8FE074694
:10236000FFF7BCFF05460CB9B56003E029465846A7
:10237000FFF75AFEAB46641C0EB15445EBDB30460A
:10238000BDE8F09F2DE9F05F81468A460025AB4607
:10239000FFF7C4FF0646002410E059F8240001F0BE
:1023A000F3FE0746FFF79AFF05460CB9B56003E058
:1023B00029465846FFF738FEAB46641C0EB154451B
:1023C000EBDB3046BDE8F09F2DE9F0470746884635
:1023D0000025A946FFF7A2FF0646002410E007EB00
:1023E000C400D0E900211046FFF778FF05460CB97C
:1023F000B56003E029464846FFF716FEA946641C6F
:102400000EB14445EBDB3046BDE8F0872DE9F047DF
:10241000074688460025A946FFF780FF06460024A8
:102420000DE057F82400FFF76BFF05460CB9B560C7
:1024300003E029464846FFF7F7FDA946641C0EB1A4
:102440004445EEDB3046BDE8F0872DE9F047054610
:1024500089464FF0000815B90020BDE8F087FEF767
:10246000B7FB04460CB90020F7E7E86820F4807059
:10247000E06068696061D5E90601C4E90601286980
:1024800070B12869FEF777FB2061206940B92046CA
:1024900002E0000050000020FEF7A7FB0020DCE770
:1024A000286A50B1286AFEF766FB2062206A20B9CC
:1024B0002046FEF79AFB0020CFE7B9F1000F01D1CB
:1024C0002046CAE7AF6816E001213846FFF7BDFF96
:1024D000064626B92046FEF788FB0020BDE7B8F186
:1024E000000F05D0C8F80060C6F80480B04601E0CF
:1024F000A660B0463F68002FE6D12046ADE7014612
:1025000055E00278202A01D1401C50E00278092AC7
:1025100001D1401C4BE002780D2A01D1401C46E05D
:1025200002780A2A01D1401C41E002782F2A0BD1FF
:1025300042782F2A08D100E0401C0278002A36D0C9
:1025400002780A2A33D0F7E702782F2A0ED1427890
:102550002A2A0BD100E0401C02782AB102782A2AEC
:10256000F9D142782F2AF6D1801C20E00278222A65
:1025700019D110F8012B01F8012B0AE002785C2A2E
:1025800003D110F8012B01F8012B10F8012B01F8F1
:10259000012B027812B10278222AEFD110F8012B18
:1025A00001F8012B03E010F8012B01F8012B027850
:1025B000002AA6D10A70704770B503460C4603E0A6
:1025C00014F8015B03F8015B151EA2F10102F7D1BB
:1025D00070BD30B5034601E003F8011B141EA2F1E3
:1025E0000102F9D130BD00B558494FF48062C86886
:1025F0000021FFF7EEFF55494FF480428868002123
:10260000FFF7E7FF01205149087400BD00220021B7
:1026100006E04E48C06830F8110000B1521C491C59
:10262000B1F5007FF5D364205043C0F347207047D5
:102630002DE9F04106460024A0464448007C10B92C
:102640004249086880471EB94FF0FF30BDE8F0816D
:10265000C6F34F1506F01F0008B1681C85B240F2A2
:10266000FF141AE03948C06830F8140020B908F1A6
:1026700001001FFA80F801E04FF00008A8450BD1D7
:10268000002705E03148C068E11920F811507F1C8F
:10269000AF42F7D36001D9E7641E002CE2DA4FF0B5
:1026A000FF30D3E770B505462848007C20B927499C
:1026B00008688047012070BDB5F5804F11D26909C7
:1026C0002248C06830F81120002406E000201F4B8B
:1026D000DB680E1923F81600641C9442F6DB002018
:1026E000E9E70220E7E770B5044604B970BD174872
:1026F0008068251A2846FFF7D5FF00BFF6E770B5BA
:1027000005462846FFF794FF0446601C08B90020E0
:1027100070BD0E4880682044FAE770B506460C4646
:102720002046FFF785FF0546681C08B9002070BDEC
:1027300006498968481922463146FFF73DFF304671
:10274000FFF7D1FF014880682844F0E754000020DB
:1027500008B50121082000F0C7FF0121064800F05C
:10276000D8FD0220ADF8000048208DF8030069462E
:10277000024800F0FDFC08BD00023000000C0140E2
:1027800001784278027082784270C2788270C1709B
:10279000704730B50346002005E01C5C0D5C6C40C2
:1027A0001C54441CE0B29042F7DB30BD30B5034608
:1027B0000AB1C94D00E0C94D2C46002004E01D5C63
:1027C000655D1D54451CE8B28842F8DB30BDF8B5A4
:1027D00002460C46012126E0002007E0042303FB0B
:1027E0000013D35C0DF80030431CD8B20428F5DB8D
:1027F00014B1C1F1040300E00B46DDB200200EE08D
:102800004319DE1703EB9676B610A3EB86061DF888
:102810000660042707FB0017D655431CD8B20428CE
:10282000EEDB4B1CD9B20429D6DBF8BD00F08001E9
:1028300011B94106080E03E01B2181EA4001C8B22C
:1028400070472DE9F84F044688464FF0000972E0C2
:10285000207861784840A1784840E17880EA010515
:102860002178627881EA0200FFF7E0FF2178694071
:1028700048408DF800006178A27881EA0200FFF7F5
:10288000D5FF6178694048408DF80100A178E27871
:1028900081EA0200FFF7CAFFA178694048408DF83D
:1028A0000200E178227881EA0200FFF7BFFFE178B9
:1028B000694048408DF80300B8F1000F34D021780A
:1028C000A27881EA0200FFF7B1FF8246FFF7AEFF70
:1028D00006466178E27881EA0200FFF7A7FF8246A8
:1028E000FFF7A4FF074686EA0700FFF79FFF0546AC
:1028F0009DF8000085EA060148408DF800009DF82B
:10290000010085EA070148408DF801009DF80200AA
:1029100085EA060148408DF802009DF8030085EA2B
:10292000070148408DF803000098206009F101007C
:1029300000F0FF09241DB9F1040F89DBBDE8F88F11
:1029400070B50546102266492846FFF722FF01248C
:1029500017E0002210212846FFF728FF0021284613
:10296000FFF735FF0A2C03D000212846FFF769FF47
:102970005B48102202FB04012846FFF70AFF601C97
:10298000C4B20A2CE5DD70BD70B50546102254496D
:10299000A0312846FFF7FDFE0A2419E00121284650
:1029A000FFF715FF012210212846FFF7FFFE601EEA
:1029B0004B4A102303FB00211A462846FFF7E9FE85
:1029C000012C03D001212846FFF73BFF601EC4B253
:1029D000002CE3DC70BDF8B5064642A0006800900C
:1029E000102231463E4801F05BF93D4D103504247C
:1029F00027E055F8040C2860E11704EB9171891069
:102A0000A4EB810199B92846FFF7BAFE0022042100
:102A10002846FFF7CBFE042269462846FFF7B9FE99
:102A20009DF80000FFF702FF8DF8000000E000BFF6
:102A3000A5F1100104222846FFF7ABFE2D1D601CF6
:102A4000C4B22C2CD5DBF8BD2DE9F04105460C466F
:102A500090461E46A54204D042462946204601F033
:102A60001FF94FEA18170AE0102231462046FFF7F7
:102A700090FE2046FFF764FF26467F1E1034002F8D
:102A8000F2D1BDE8F0812DE9F04106460C4617462B
:102A90009846B44204D03A463146204601F000F947
:102AA000A7F1100004443D0912E02046FFF76CFF37
:102AB000012D05D1102241462046FFF76AFE05E0B0
:102AC000A4F1100110222046FFF763FE6D1E103C9A
:102AD000002DEAD1BDE8F081AB600008AB5F0008D3
:102AE000AC4400200100000010B56FF0040001F0BC
:102AF000B2F82E4800682E49B0FBF1F02D4908705D
:102B00000846007800EB4001C1EBC0104FF6FF71A2
:102B100001EAC0002849088010BD0146254A127804
:102B20004A434FF0E0235A6100229A611A46126923
:102B300042F001021A6100BF4FF0E022106900F07C
:102B400001021AB100F48032002AF5D04FF0E022E1
:102B5000126922F001024FF0E0231A6100229A610B
:102B600070470146144A12884A434FF0E0235A61E5
:102B700000229A611A46126942F001021A6100BFEE
:102B80004FF0E022106900F001021AB100F4803227
:102B9000002AF5D04FF0E022126922F001024FF036
:102BA000E0231A6100229A6170470000340000207F
:102BB00000127A00680000206A000020014600BF71
:102BC000704700BFFE4A128802F04002002AF9D086
:102BD000C2B2FB4B1B1D1A80704710B586B004466D
:102BE000012144F2040000F07FFD4FF40070ADF8C5
:102BF000140003208DF8160018208DF8170005A981
:102C0000F04800F0B5FA4FF48060ADF814000420ED
:102C10008DF8170005A9EB4800F0AAFA25208DF8D9
:102C2000000003208DF801008DF8020001208DF8CE
:102C30000300684600F0C5FF01940020ADF80800CD
:102C4000ADF80A00ADF80C00ADF810000C20ADF89E
:102C50000E0001A9DA4800F0EEFD012240F22551F4
:102C6000D74800F080FE0121D54800F070FE06B084
:102C700010BD10B540F22551D14800F059FF10B3F6
:102C8000CF4800F0D5FEC4B2CF48008800F4004021
:102C9000C8B9CD48008800F4804060B10A2C03D048
:102CA0000020C949088020E0C748008840F400405F
:102CB000C549088019E00D2C06D1C348008840F4AE
:102CC0008040C149088010E0BF480088C0F30D0073
:102CD000BE490C54BC480088401CBB4908800846CB
:102CE0000088632801DD0020088010BD10B586B083
:102CF00004460121042000F0F7FC0121480400F003
:102D000000FD0420ADF8140003208DF816001820F3
:102D10008DF8170005A9AB4800F02AFA0820ADF895
:102D2000140004208DF8170005A9A64800F020FA29
:102D300026208DF8000003208DF801008DF8020098
:102D400001208DF80300684600F03BFF019400204D
:102D5000ADF80800ADF80A00ADF80C00ADF81000B1
:102D60000C20ADF80E0001A9994800F064FD012285
:102D700040F22551964800F0F6FD0121944800F0FC
:102D8000E6FD06B010BD10B540F22551904800F0A8
:102D9000CFFE10B38E4800F04BFEC4B28D480088C1
:102DA00000F40040C8B98B48008800F4804060B14E
:102DB0000A2C03D000208749088020E0854800883D
:102DC00040F400408349088019E00D2C06D1814869
:102DD000008840F480407F49088010E07D480088EA
:102DE000C0F30D007C490C547A480088401C794996
:102DF000088008460088312801DD0020088010BDC9
:102E00000FB438B505A800907448009A049901F0F1
:102E1000EFFD00200090714800F070FF85B20024A3
:102E20000DE000BF40216A4800F06CFE0028F9D098
:102E30006A48015D664800F0F7FD601C84B2AC4250
:102E4000EFDB38BC5DF814FB10B540F22551644847
:102E500000F06EFE002867D0614800F0E9FDC4B2C2
:102E60006048008800F4004000B110BD5E48007862
:102E7000052852D2DFE800F0030B122B3D00AA2CEC
:102E800004D1012058490870584908704BE02002CD
:102E90005749088002205449087044E0544800888B
:102EA0002043534908800846008818B10846008826
:102EB000FD2805DD00204C4908704C49087005E0EC
:102EC00000204C4908800320474908702BE04948FE
:102ED00001880088401C474A1080474844541046E7
:102EE000008843490988884202DB04203E49087073
:102EF00019E00D2C0BD13E48008840F400403949C0
:102F000008800020384908703849087004E0002023
:102F1000354908703549087005E0002032490870CD
:102F20003249087000BF00BF00BF9EE710B586B0F1
:102F300004460121082000F0D7FB0121880400F09D
:102F4000E0FB4FF48060ADF8140003208DF816000C
:102F500018208DF8170005A9284800F009F94FF44A
:102F60000060ADF8140004208DF8170005A923486F
:102F700000F0FEF801940020ADF80800ADF80A005A
:102F8000ADF80C00ADF810000C20ADF80E002720B5
:102F90008DF8000003208DF801008DF8020001205B
:102FA0008DF80300684600F00CFE01A90C4800F003
:102FB00042FC01210A4800F0CAFC012220E0000086
:102FC0000038014000080140700000205C450020EE
:102FD0000044004072000020C0450020F24500205F
:102FE0000048004074000020760000207C00002093
:102FF000780000207A00002024460020000C0140C8
:1030000040F225511F4800F0AEFC06B010BD0FB4D1
:1030100038B505A800901C48009A049901F0E8FC16
:1030200000200090184800F069FE85B200240DE0F1
:1030300000BF4021134800F065FD0028F9D0124878
:10304000015D104800F0F0FC601C84B2AC42EFDB84
:1030500038BC5DF814FB70B505460E46002400BF71
:103060000CE000BF8021074800F04CFD0028F9D09B
:10307000295D044800F0D8FC601C84B2B442F0DB47
:1030800070BD0000004800402447002006488047EB
:1030900006480047FEE7FEE7FEE7FEE7FEE7FEE73D
:1030A000FEE7FEE7FEE7FEE7D3090008310100086E
:1030B00010B50446CC48844208D10121042000F018
:1030C0002DFB0021042000F029FB46E0C748844284
:1030D00008D10121082000F021FB0021082000F088
:1030E0001DFB3AE0C248844208D10121102000F0C3
:1030F00015FB0021102000F011FB2EE0BD4884429A
:1031000008D10121202000F009FB0021202000F03F
:1031100005FB22E0B848844208D10121402000F09C
:10312000FDFA0021402000F0F9FA16E0B34884428D
:1031300008D10121802000F0F1FA0021802000F068
:10314000EDFA0AE0AE48844207D10121801500F073
:10315000E5FA0021A01500F0E1FA10BD10B501213B
:10316000084600F0DBFA0021012000F0D7FA10BD7C
:103170002DE9F0410246002500260020002300240E
:10318000002791F803C00CF00F0591F803C00CF074
:10319000100CBCF1000F03D091F802C04CEA0505F9
:1031A00091F800C0BCF1000F31D0146800202BE072
:1031B0004FF0010C0CFA00F3B1F800C00CEA030662
:1031C0009E4220D183004FF00F0C0CFA03F7BC4352
:1031D00005FA03FC4CEA040491F803C0BCF1280F83
:1031E00006D14FF0010C0CFA00FCC2F814C00AE042
:1031F00091F803C0BCF1480F05D14FF0010C0CFA57
:1032000000FCC2F810C0401C0828D1D31460B1F8EB
:1032100000C0BCF1FF0F34DD546800202EE000F147
:10322000080C4FF0010808FA0CF3B1F800C00CEAE2
:1032300003069E4221D183004FF00F0C0CFA03F7D6
:10324000BC4305FA03FC4CEA040491F803C0BCF14A
:10325000280F05D100F1080C08FA0CF8C2F8148008
:1032600091F803C0BCF1480F07D100F1080C4FF0F2
:10327000010808FA0CF8C2F81080401C0828CED3C8
:103280005460BDE8F0814FF6FF710180022181702A
:103290000421C17070470246002093680B400BB1B7
:1032A000012000E0002070470146886880B2704726
:1032B00002460020D3680B400BB1012000E0002043
:1032C00070470146C86880B270470161704741612C
:1032D00070470AB1016100E041617047C160704709
:1032E0004FF480320A43826181618261826982691E
:1032F000704702460020434B18684FF68073184011
:1033000040EA021008433F4B186070473E49C861CD
:103310007047F0B50A46002300240021002500F084
:103320000046B6F1004F02D1364EF16901E0354E4C
:103330007168C0F3034583B200F44016B6F5401F30
:1033400008D121F070612F4E766826F070662D4FFF
:103350007E6012E000F48016B6F5801F06D10326C9
:1033600006FA05F4A14341F0706106E0460D36010E
:1033700003FA06F6B14341F0706122B1460D360101
:1033800003FA06F6314300F00046B6F1004F02D1D1
:103390001C4EF16101E01B4E7160F0BD30B50022A2
:1033A0008B071C0F0F2303FA04F2164B08338C1003
:1033B00053F824309343134C08348D1044F82530CF
:1033C00023468C1053F824308C07240F00FA04F4A1
:1033D00023430C4C08348D1044F8253030BD0A4985
:1033E000DC3108607047000000080140000C01401B
:1033F000001001400014014000180140001C014071
:10340000002001400000014000002042DF48006829
:1034100040F00100DD49086008464068DC4908408A
:10342000DA49486008460068DA490840D749086028
:103430000846006820F4802008600846406820F4B0
:10344000FE0048604FF41F0088607047CF4909684C
:1034500021F48031CD4A11601146096821F48021A0
:103460001160B0F5803F03D0B0F5802F0ED106E09B
:10347000C649096841F48031C44A116007E0C34974
:10348000096841F4A021C14A116000E000BF00BFFB
:10349000704710B501460022002300204A11012A7E
:1034A00002D1BA4C236806E0022A02D1B74C236A43
:1034B00001E0B64C636A01F01F02012494401C40F5
:1034C0000CB1012000E0002010BD38B500200090B4
:1034D0000024002500BF3120FFF7DBFF05460098E0
:1034E000401C00900098B0F5A06F01D0002DF2D0E4
:1034F0003120FFF7CEFF08B1012400E00024204670
:1035000038BD01460020A14A106820F0F80040EACA
:10351000C10010607047A049086070470246002053
:103520009A4B586820F47C1042EA01031843974BE9
:103530005860704798490866704701460020934AD2
:10354000506820F003000843506070478F4840687F
:1035500000F00C007047014600208C4A506820F0B3
:10356000F00008435060704701460020874A5068C9
:1035700020F4E06008435060704701460020834A11
:10358000506820F4605040EAC1005060704729B193
:103590007E4A527A02437D4B5A7204E07B4A527A49
:1035A00082437A4B5A7270477B49D8310860704722
:1035B00001460020754A506820F44040084350609E
:1035C00070470021714A20321170704A82F8201031
:1035D000012802D004280AD104E001216B4A2032DC
:1035E000117005E00521694A2032117000E000BF2A
:1035F00000BF70476949086070476449096A014320
:10360000624A11627047654944390860704730B5B5
:1036100000210022002400235C4D6D6805F00C01A0
:1036200021B1042905D0082923D105E05C4D0560AE
:1036300022E05B4D05601FE0544D6D6805F470128B
:10364000524D6D6805F48034022505EB92421CB999
:10365000544D554305600BE04C4D6D6805F4003545
:103660001DB1504D5543056002E04D4D5543056079
:1036700002E04B4D056000BF00BF444D6D6805F092
:10368000F0010909484D6B5C0568DD4045603F4D20
:103690006D6805F4E061090A434D6B5C4568DD40E7
:1036A00085603A4D6D6805F46051C90A3E4D6B5C0A
:1036B0004568DD40C560354D6D6805F44041890BB6
:1036C0003A4D6B5CC568B5FBF3F5056130BD29B1BA
:1036D0002E4A526902432D4B5A6104E02B4A52692B
:1036E00082432A4B5A61704729B1284A92690243A2
:1036F000264B9A6104E0254A92698243234B9A61E2
:10370000704729B1214AD2690243204BDA6104E0B3
:103710001E4AD26982431D4BDA61704729B11B4AA8
:10372000D2680243194BDA6004E0184AD268824337
:10373000164BDA60704729B1144A12690243134BE1
:103740001A6104E0114A12698243104B1A617047F2
:1037500012494039086070470F49C86470470B49E7
:10376000C87170470948406A40F080700749486254
:10377000704701460020054A92680A400AB10120BC
:1037800000E0002070470149887270470010024035
:103790000000FFF8FFFFF6FE0000424280044242B4
:1037A00000127A0000093D007D0000208D000020FD
:1037B00010B50446FB48844209D101218803FFF774
:1037C000ADFF00214FF48040FFF7A8FF32E0F6483C
:1037D000844209D101214804FFF7ADFF00214FF4D5
:1037E0000030FFF7A8FF25E0F048844209D101210D
:1037F0008804FFF7A0FF00214FF48020FFF79BFF14
:1038000018E0EB48844209D10121C804FFF793FF77
:1038100000214FF40020FFF78EFF0BE0E5488442C3
:1038200008D101210805FFF786FF00214FF4801021
:10383000FFF781FF10BD2DE9F04786B005460E4623
:103840000024A24600BFA1460027B08900B100BFF6
:103850002F462C8A4CF6FF700440F08804432C82DB
:10386000AC894EF6F3100440B08831890843718961
:1038700008430443AC81AC8A4FF6FF400440B08952
:103880000443AC8201A8FFF7C2FEC648874202D1BA
:10389000DDF810A001E0DDF80CA0A88900F40040DC
:1038A00040B10AEBCA0000EB0A1031684900B0FBD6
:1038B000F1F807E00AEBCA0000EB0A103168890052
:1038C000B0FBF1F86420B8FBF0F00401200964219A
:1038D00001FB1089A88900F4004040B1322000EBC0
:1038E000C900B0FBF1F000F00700044308E032200B
:1038F00000EB09106421B0FBF1F000F00F0004436D
:103900002C8106B0BDE8F0874FF41651016000210C
:103910008180C18001810C2141810021818170471A
:1039200010B502460020108A4FF2FF0318400B88A2
:103930004C8823438C882343CC882343184310822C
:1039400010BD0021018041808180C180704721B17C
:10395000828942F40052828104E082894DF6FF732D
:103960001A4082817047F0B50346002400260025E6
:10397000002040F66A17B94200D100BF1846C1F3D3
:10398000421401F01F06012707FA06F5012C01D1A8
:103990000C3004E0022C01D1103000E014301AB1D8
:1039A00007682F43076002E00768AF430760F0BD78
:1039B0001AB1838A0B43838202E0838A8B4383821A
:1039C0007047028A4FF6F0731A400282028A0A4355
:1039D0000282704782894FF2FF731A408281828986
:1039E0000A438281704721B1828942F002028281BA
:1039F00004E082894FF6FD731A4082817047028A83
:103A00004FF6DF731A400282028A0A43028270472D
:103A100021B1028A42F48042028204E0028A4BF61B
:103A2000FF731A4002827047C1F308028280704718
:103A300001468888C0F308007047818941F0010180
:103A400081817047028BD2B20283028B42EA01224B
:103A500002837047028B02F47F420283028B0A4387
:103A60000283704721B1828A42F02002828204E000
:103A7000828A4FF6DF731A408282704721B1828AB0
:103A800042F01002828204E0828A4FF6EF731A40FD
:103A90008282704721B1828A42F00802828204E069
:103AA000828A4FF6F7731A408282704721B1828969
:103AB00042F40042828103E08289C2F30E028281D5
:103AC000704721B1828A42F40062828204E0828AD5
:103AD0004FF2FF731A4082827047828A4FF6FB735F
:103AE0001A408282828A0A438282704721B1828A86
:103AF00042F00202828204E0828A4FF6FD731A408D
:103B00008282704702460020B1F5007F00D100BFDD
:103B100013880B400BB1012000E00020704701F436
:103B20000072B2F5007F00D100BFCA430280704727
:103B300070B50246002400230025002040F66A16D6
:103B4000B14200D100BFC1F3421501F01F030126AD
:103B500006FA03F3012D02D19689334006E0022DC7
:103B600002D1168A334001E0968A33400C120126B6
:103B700006FA04F41688344013B10CB1012000E0B9
:103B8000002070BD10B50022002340F66A14A14247
:103B900000D100BF0A1201249440A3B2DC43048088
:103BA00010BD0000003801400044004000480040C3
:103BB000004C00400050004031490143314A11603F
:103BC000704770B5002100230F22C47804B32D4C38
:103BD000246804F4E064C4F5E064210AC1F104033C
:103BE000CA40447804FA03F184781440214309015F
:103BF000254C0678A155047804F01F050124AC403B
:103C000005786D11AD0005F1E025C5F8004109E02A
:103C1000047804F01F050124AC401C4D0678761191
:103C200045F8264070BD1A4A0A400243154B1B1F37
:103C30001A60704739B1134A121D12680243114BC2
:103C40001B1D1A6006E00F4A121D126882430D4BBD
:103C50001B1D1A607047042808D14FF0E021096944
:103C600041F004014FF0E022116107E04FF0E02144
:103C7000096921F004014FF0E02211617047000052
:103C80000000FA050CED00E000E400E080E100E057
:103C900080FFFF1FA0F14101192900D82030704793
:103CA00040EA01039B0703D009E008C9121F08C0BE
:103CB000042AFAD203E011F8013B00F8013B521E3E
:103CC000F9D27047D2B201E000F8012B491EFBD2B5
:103CD00070470022F6E710B513460A460446194617
:103CE000FFF7F0FF204610BDCAB2401E10F8011FBA
:103CF0008A4202D00029F9D100207047421C10F8F6
:103D0000011B0029FBD1801A704710B5002200E08A
:103D1000521C835C8C5CA34201D1002BF8D1D8B239
:103D2000E1B2401A10BD034611F8012B00F8012B37
:103D3000002AF9D11846704730B5054600200346E1
:103D400000E05B1C934205D2EC5CC85C201A01D1F8
:103D5000002CF6D130BD00000FB400B58DB010A915
:103D600009900B9000914FF0FF300A9000200C90CA
:103D700005480690054807906A4609A80F9900F083
:103D8000D3FA0DB05DF814FB454300086343000807
:103D90002DE9FF5F1D464FF0FF3BD5E901469146F7
:103DA0005F464FF00008A9697F1C01988847296A7F
:103DB000824688470028F6D1BAF1FF3F0CD024F4A0
:103DC000C064002E19DD600614D5BAF12B0F09D09E
:103DD000BAF12D0F0ED103E0584604B0BDE8F09FB4
:103DE00044F48064A9697F1C01988847761E824646
:103DF000002E02DDBAF1300F03D0B9F1000F26D04A
:103E000032E0A969761E44F400747F1C019888474B
:103E10008246002E05DDBAF1780F06D0BAF1580FB0
:103E200003D0B9F1000F10D01EE0B9F1000F02D09D
:103E3000B9F1100F18D1A969761E24F400747F1C03
:103E4000019888478246102002E0082000E00A20FE
:103E5000814609E008FB0908A969761E44F400744C
:103E60007F1C019888478246002E05DD4946504652
:103E700000F046FA0028EDDAE96901988847A005C4
:103E800002D46FF00100A8E7E00725D1600613D542
:103E9000600502D5C8F1000000E0404629680A1D0F
:103EA0002A600968220501D5087015E0220701D5AE
:103EB000088011E008600FE02868011D2960006893
:103EC000210502D580F8008006E0210702D5A0F880
:103ED000008001E0C0F8008038467EE72DE9FE4F03
:103EE000804681EA0300C00F0C46009021F000419B
:103EF00023F00045B8EB0200A94105D24046214617
:103F000090461C460B46024623F00040104347D023
:103F1000270DC7F30A00C3F30A510290401A01901B
:103F200040286BDAC3F3130040F4801B00989246DC
:103F300020B10023D2EB030A63EB0B0B0198594627
:103F4000C0F14002504600F0AAF906460D46504620
:103F50005946019A00F0C2F910EB080061410024B3
:103F600087EA115284EAE7731A4340D0009A62B399
:103F7000019A012A4FEA075215DC001B61EB02018E
:103F80004FF0004202EA0752CDE90042001C41F521
:103F9000801132462B4600F004FA03B0BDE8F08FE2
:103FA00040462146F9E7001B61EB0201001C41F588
:103FB000801300185B412018A2F5001747EB03019E
:103FC00040EAD570B6196D4111E06D084FEA36062A
:103FD00045EAC0754FEA0752001B61EB0201001C65
:103FE00041F5801149084FEA30000019514132462D
:103FF0002B4603B0BDE8F04F00F0C4B90098012291
:1040000040000023D0EB020263EBE07300982146EE
:104010004FEAE074B8EB000061EB0401E9E783F0DC
:1040200000435BE781F0004158E72DE9FE4F81EA4C
:10403000030404F0004421F0004100944FF0000B11
:1040400023F0004350EA01045ED052EA03045BD03F
:10405000C3F30A54C1F30A552C44A4F2F334019477
:10406000A0FB0254C1F3130141F48011C3F3130305
:1040700043F4801301FB024400FB034E840A970AB9
:1040800044EA815447EA8357A4FB076802958D0AE6
:1040900005FB07854FEA932C04FB0C542705029D72
:1040A0004FEA065847EA1637B5EB08056EEB070CE2
:1040B000870E920E47EA811742EA8312A7FB02019C
:1040C000B6EB0B0164EB00042B0D43EA0C335E18D6
:1040D00044EB1C50DA465146E7FB0201C5F31304DA
:1040E0004FEA0B3343EA14534FEA0432019C43EA8C
:1040F0000603A4F10C040294009CCDE900B400F086
:1041000050F903B0BDE8F08F00200146F9E70EB585
:10411000C10F80EAE0700844CA07002140F233432F
:104120008DE80E000A460B4600F03BF903B000BDD7
:104130000EB540F2334102910021CDE900110A464B
:104140000B4600F02EF903B000BD70B5C1F30A5262
:1041500001F000450024C1F3130140F2FF3341F4A4
:1041600080119A4201DA002070BD40F233439A4236
:10417000A2F2334203DC524200F0A0F800E090408B
:104180002C43F1D0404270BD00F0004230F00040BE
:104190000AD0C10D01F56071C0F3160042EA015169
:1041A000C2084007114370470020014670470000D5
:1041B00030B5041E71F1000404DB4FF000444042AE
:1041C00064EB0101141E73F1000405DB1C464FF083
:1041D0000043524263EB04038B4208BF824230BD6E
:1041E00030B5041E71F1000404DB4FF0004440427E
:1041F00064EB0101141E73F1000405DB1C464FF053
:104200000043524263EB0403994208BF904230BD21
:1042100030B50B46014600202022012409E021FA96
:1042200002F59D4205D303FA02F5491B04FA02F593
:104230002844151EA2F10102F1DC30BD2DE9F05F2A
:104240000546002092469B46884606468146402405
:104250001BE0284641464746224600F02FF85346C9
:104260005A46C01A914110D311461846224600F012
:1042700016F82D1A67EB01084F462246012000214F
:1042800000F00DF817EB00094E41201EA4F10104C7
:10429000DFDC484631462A464346BDE8F09F202AE7
:1042A00004DB203A00FA02F1002070479140C2F18D
:1042B000200320FA03F3194390407047202A04DBBF
:1042C000203A21FA02F00021704721FA02F3D0408F
:1042D000C2F120029140084319467047202A06DBAC
:1042E000CB17203A41FA02F043EAE07306E041FAC4
:1042F00002F3D040C2F120029140084319467047B2
:104300003A2800D2303820F02002412A01D3A2F10D
:104310003700884201D34FF0FF30704702681144E4
:104320001378016018467047D1600449516104490F
:10433000116200211161114600F038B91D430008D7
:10434000A1450008426842B1016811F8013B23B160
:10435000521EC0E90012184670470121C160881E34
:10436000704742685AB1C368016843B983688B4299
:1043700005D0491E521CC0E90012002070474FF0C2
:10438000FF30704710B5141E73F1000408DA401CAA
:1043900041F1000192185B411A4301D120F0010064
:1043A00010BD2DE9F04D92469B4611B1B1FA81F254
:1043B00002E0B0FA80F220329046FFF770FF044628
:1043C0000F4640EA0A0041EA0B0153465A460843A9
:1043D00013D0114653EA010019D0C8F140025046EB
:1043E000FFF76CFF05460E46504659464246FFF71A
:1043F00056FF084305D0012004E020463946BDE8B9
:10440000F08D0020054346EAE0762C4337430A98B6
:104410006305E40AA0EB08000022FD0A44EA4754C1
:104420000A3002D500200146E9E70105101969416B
:10443000DDE9084500196941BDE8F04DA2E72DE925
:10444000F04D81EA030404F0004B21F000451446CE
:104450004FF0000A23F0004150EA050220D054EA50
:1044600001021DD0C5F30A570246C5F31303C1F379
:104470001300C1F30A5640F4801543F48013A7EBF0
:104480000608101BD64608F2FD3873EB050002D370
:1044900008F1010801E092185B41B8F1000F03DA5E
:1044A00000200146BDE8F08D00204FF48011064643
:1044B00084460EE0171B73EB050705D3121B63EB55
:1044C000050306434CEA010C49084FEA30009218F4
:1044D0005B4150EA0107EDD152EA030012D082EAB3
:1044E000040083EA0501084305D0101BAB4106D246
:1044F0000122002306E000224FF0004302E06FF0AB
:10450000010253101AEB06004CEB085110EB0A00A5
:1045100041EB0B01BDE8F04DFFF734BF70B521F062
:10452000004303430CD0C1F30A550024D5EB040526
:1045300064EB0403D617AD1AB34102DB0020014639
:1045400070BD201841EB025170BDC1F30A52C1F396
:10455000130140F2FF3341F480119A4202DA002045
:104560000146704740F233439A42A2F2334202DCE2
:104570005242FFF7A3BEFFF792BE0000064C074D64
:1045800006E0E06840F0010394E807009847103423
:10459000AC42F6D3FBF7D0FD80620008A0620008B1
:1045A000C0B24FF4F05100F0EBB900002DE9F34F29
:1045B0008BB04FF0000801F10C000C464FF0010BDE
:1045C00046460DF1080A0190626901210198904761
:1045D000051E2DD0252D2CD0216A8847C0B16269D7
:1045E000012101989047216A88470028F7D1411E90
:1045F00062690198904700E0761CA1690B98884792
:10460000216A88470028F7D1E1690B988847DBE7E2
:10461000A1690B9888470746A84201D1761CD3E7C9
:10462000E1690B9888477F1C02D1B8F1000F6FD069
:1046300047E1002762693D463946019890472A289C
:1046400004D162690121019890470125DFF8889221
:104650006269012101989047A0F130010A290AD22C
:104660004F45E5DC07EB870100EB4107303FDFD426
:1046700045F01005ECE7E90601D46FF000476C281F
:104680000AD04C2814D0682815D06A280DD0742878
:104690001CD07A281AD01DE0626901210198904748
:1046A0006C2802D045F0040514E045F002050DE049
:1046B00045F020050AE062690121019890476828C9
:1046C00002D045F0080505E045F400656269012166
:1046D00001989047C4E9015765283DD019DC582856
:1046E0007AD00CDC452837D004DC252826D0412898
:1046F00031D131E046282FD047282CD12CE05B283F
:1047000077D0612828D063287CD0642823D15AE050
:10471000D1E06F2848D008DC66281DD067281BD060
:10472000692821D06E2816D127E0702845D073283B
:1047300068D0752847D078280DD14DE0A1690B9835
:104740008847054625283FF469AFE1690B988847FB
:104750006D1C3FF46AAFB4E023466A466FF0010077
:104760000B99AFF300809FE045F040006060A80720
:1047700023464FF0000236D43EE0E8077FF447AF0F
:104780002068011D21600068290501D506701BE71E
:10479000290701D5068017E7A90703D5F117C0E956
:1047A000006111E706600FE745F040006060A80770
:1047B00023464FF0080216D41EE040F60E0125EA0B
:1047C0000100606016E045F040006060A8072346E5
:1047D0004FF00A0207D40FE045F040006060A807E0
:1047E00008D5234610226FF001000B99AFF300802B
:1047F0005AE007E0234610226FF001000B99FFF703
:10480000C7FA51E04FF000094F464B46632802D0EB
:104810005B2807D041E02079C00601D40120A060C8
:1048200001273AE062690121019890475E2805D18D
:104830004FF001096269494601989047216939B9E9
:1048400000210A46534643F82120491C0829FADB77
:10485000B0B3216969B9C11700EBD16253110AEBFA
:10486000830122F01F02821A01200B68904003434B
:104870000B6062690121019890475D28E8D1B9F188
:10488000000F09D00020514651F82020D24341F8B2
:104890002020401C0828F7DB02AB224600976FF06F
:1048A00001000B99AFF3008000280CDA401C08D1FE
:1048B000BBF1000F05D04FF0FF300DB0BDE8F08F19
:1048C000FFE74046F9E7E90701D108F1010806448E
:1048D0004FF0000B78E60000CCCCCC0C2DE9F04D6D
:1048E00000231A461B1A8A4103DB00200146BDE85B
:1048F000F08DC1F30A52C1F3130141F480154FF05A
:10490000000BD10702D100186D41521E002704464A
:1049100040F2FF11384601EB620A3E4680460246ED
:1049200000204FF48011FFF7C9FCC2197141BB1878
:1049300046EB0100B4EB030C75EB000C04D3E41A56
:1049400065EB000517460E46241908F101006D417C
:1049500080463428E3DDF91946EB0600091BA8411F
:1049600003D24FF0FF32134601E0002213461BEB47
:10497000070046EB0A51BDE8F04DFFF703BD00000C
:104980007F2801D9002208E0064A02EB5002C00746
:10499000127800D1120902F00F0201209040084065
:1049A00070470000406200080FB4054B10B503A922
:1049B000044A029800F090F910BC5DF814FB000066
:1049C000C32B00086C0000200FB4084B10B504A9DD
:1049D00002AA039800F080F9044602A9002000F022
:1049E000FEFC204610BC5DF814FB0000DF530008FD
:1049F00037B514460846064B6A46214600F06CF966
:104A000004466946002000F0EAFC20463EBD000056
:104A1000DF530008490050EAC12018BF04204A0DA6
:104A200018BF40F0010040F2FF72B2EB515F08BFC7
:104A300040F00200012808BF052070472DE9F04131
:104A40004F1E00EBC7010446D1E9000115461E4682
:104A500037F006020DD02A463346FFF7E6FA7F1EEE
:104A600004EBC703D3E90023FFF738FA37F0060257
:104A7000F1D1022F25D0042F13D0062F18BFBDE887
:104A8000F0812A463346FFF7D0FAD4E90A23FFF72C
:104A900025FA2A463346FFF7C8FAD4E90823FFF778
:104AA0001DFA2A463346FFF7C0FAD4E90623FFF77A
:104AB00015FA2A463346FFF7B8FAD4E90423FFF77C
:104AC0000DFA2A463346FFF7B0FAD4E90223FFF77E
:104AD00005FA2A463346FFF7A8FAD4E90023BDE8D1
:104AE000F041FFF7FBB900000022134610460149D0
:104AF000FFF7A5BC0000F03FFFF7F0B90022134616
:104B000010461146FFF79BBC40F2013200204FF0E7
:104B1000E041FFF703BD0000024A00201107FFF744
:104B2000FDBC000001FDFFFF02E008C8121F08C124
:104B3000002AFAD170477047002001E001C1121F1E
:104B4000002AFBD17047000001490860704700004F
:104B50009C0000202DE9FF5F82B00021DDE90430D8
:104B6000020DDDF840B0034318D044F61050A2F215
:104B7000FF3242431514119801281FD0A5EB0B00FA
:104B8000401C5FEA000A4FF000064E4FDFF83891F4
:104B9000B046504615D5CAF1000413E0119801241F
:104BA0004AA3012801D16FEA0B010298119AC0E9CA
:104BB0000031C0E9024206B0BDE8F09FCBF1000031
:104BC000DFE704460021404A491842EB0450CDE992
:104BD000001012E0E00707D032463B464046494607
:104BE000FFF723FA8046894632463B46104619466F
:104BF000FFF71BFA06460F466410002CEAD1DDE9E8
:104C00000401DDE90023BAF1000F06DAFFF70DFA1F
:104C100042464B46FFF709FA05E0FFF710FC424613
:104C20004B46FFF70CFC04460E460022284BFFF7CC
:104C3000D7FA03D84FF0FF30014607E00022254B9A
:104C400020463146FFF74AF9FFF77FFC102409E0C0
:104C5000002C0ADB0A220023FFF7F0FA039B303214
:104C60001A55641E50EA0102F2D1641C039AC4F181
:104C700011031444119A012A03D0012208430DD1D3
:104C80000AE0084304D000204FF0110B119072E7A6
:104C9000A3EB0B056D1E0DE05B4504DD4FF000023C
:104CA00005F1010504E003DA4FF00002A5F101056A
:104CB000002AECD002981199C0E90231C0E9004500
:104CC00079E70000000014400000F03F30000000D1
:104CD0000000F0430000E03F2DE9FF4F95B09A46F9
:104CE000884606460025EEE1252877D10024274690
:104CF000F94A0121039400E0044316F8013F203BE8
:104D000001FA03F01042F7D130782A2811D06FF061
:104D10002F033078A0F13002092A16D8039A44F004
:104D2000020402EB820203EB42021044761C039061
:104D3000EFE758F8042B0392002A03DA504244F4B8
:104D40000054039044F00204761C30782E2816D1CB
:104D500016F8010F44F004042A280DD06FF02F023A
:104D60003078A0F13003092B09D807EB870302EB59
:104D70004303C718761CF3E758F8047B761C307899
:104D80006C280FD006DC4C2817D068280DD06A2874
:104D900014D104E0742810D07A280FD10DE044F427
:104DA00000140AE044F4801401E044F440147278E2
:104DB000824202D104F58014761C761C3078662875
:104DC0000BD013DC582877D009DC002875D0452893
:104DD000F6D04628F4D047281AD193E118E063288A
:104DE00035D0642879D0652812D18BE1702873D032
:104DF00008DC6728F1D069286FD06E280DD06F28A5
:104E000006D1ACE073282CD0752874D0782853D004
:104E10005246179990476D1C54E1C4F30250022882
:104E200009D003280DD0D8F8001004280DD00D604B
:104E300008F1040846E1D8F80010EA17C1E9005269
:104E4000F6E7D8F800100D80F2E70D70F0E718F8DB
:104E5000041B8DF8001000208DF80100EB460120A6
:104E600003E058F804BB4FF0FF3061074FF000013A
:104E700002D40DE009F101018946B9420FDA8145FA
:104E8000F8DB1BF809100029F4D108E009F1010151
:104E900089468142FADB1BF809100029F6D10398F4
:104EA0005346A0EB090721463846179A00F080FACE
:104EB000284400EB090507E044E008E10DE01BF899
:104EC000010B524617999047B9F10109F7D25346A1
:104ED00021463846179AF2E039E00A21C4F302521B
:104EE0004FF0000B0091022A06D058F8040BC117AE
:104EF000032A09D00AE023E008F1070020F00702A6
:104F0000F2E80201904605E000B2C117042A01D17F
:104F100040B2C117002906DA0A460021404261EB7F
:104F200002012D2202E0220504D52B228DF8042057
:104F3000012203E0E20701D02022F7E7914657E083
:104F40000A2100E010214FF0000B00910BE010212E
:104F50004FF0000B44F004040827009103E0082000
:104F60004FF0000B0090C4F30252022A05D058F80B
:104F7000040B0021032A08D008E008F1070020F004
:104F80000702F2E80201904603E080B2042A00D151
:104F9000C0B24FF0000922072AD53278702A07D014
:104FA000DDF800C08CF0100C5CEA0B0C05D00EE0B4
:104FB00040228DF80420012208E050EA010306D0C7
:104FC00030238DF804308DF8052002229146009B95
:104FD00083F0080353EA0B030AD150EA010201D11E
:104FE000620705D530228DF804204FF001097F1E9D
:104FF0003278582A04D039A20C920CAA02920BE003
:105000003BA2F9E75B46009AFFF718F90C9B9B5C03
:10501000029A521E0292137050EA0102F2D10298D3
:1050200004A9081A00F1200B600702D524F480348B
:1050300000E001275F4502DDA7EB0B0000E0002048
:1050400000EB0B01009003984944401A0390E003E1
:1050500006D453462146179A039800F0A9F905444F
:10506000002706E001A85246C05D179990476D1CC5
:105070007F1C4F45F6DBE0030CD553462146179ABB
:10508000039800F095F9054404E030205246179942
:1050900090476D1C0099481E00900029F5DC08E03F
:1050A0000298029952460078491C0291179990473C
:1050B0006D1CBBF10001ABF1010BF1DC5BE100F019
:1050C00065F90544761C307800287FF40DAE19B0E0
:1050D0002846BDE8F08F0000092801003031323346
:1050E0003435363738396162636465660000000024
:1050F000303132333435363738394142434445460E
:1051000000000000600700D4062708F1070020F027
:105110000700F0E80223804603F0004C5FEA0C0031
:1051200001D097A009E0200501D596A005E0E00791
:1051300001D095A001E0AFF24C001390307823F03D
:10514000004365280CD006DC452809D046281DD030
:1051500047287FD13BE0662818D067287AD136E00F
:105160000021112F01DB112000E0781CCDE90001A6
:1051700004A90CA8FFF7EEFCDDE90D010C9A4FF035
:10518000000B07F10109109200914EE04FF0004032
:105190000097CDE9011004A90CA8FFF7DBFCDDE9BD
:1051A0000D020C9B0F994FF0000B9146109300924B
:1051B00011B9791C00EB0109B7EB090003D4C0F168
:1051C000FF3B07F10109A9EB0700019042E0012F25
:1051D00000DA01270021112F01DD112000E03846FF
:1051E000CDE9000104A90CA8FFF7B4FCDDE90D012D
:1051F0000C9A00914FF0000BB946109221070FD482
:10520000009A4A4503DA914601E0A9F10109B9F192
:10521000010F05DD109AA9F10101515C3029F4D08C
:10522000B84202DA10F1040F03DA0121CDE90110CE
:1052300010E0002803DC8344A9EB000102E0411CDC
:10524000494500DD8946A0EB0B00401C01904FF062
:1052500000400290200705D40198484502DB4FF03A
:10526000FF30019000208DF84B0002980DF14B07A4
:10527000B0F1004F25D002200C902B200D90029809
:1052800000280CDA404202902D200D9007E00A2100
:105290000298FEF7BDFF3031029007F8011D0C990E
:1052A000481E0C900029F2DC02980028EFD1791EEC
:1052B0000D980870307800F0200040F0450007F8A5
:1052C000020D11A8C01BC01D02901398007800B1F8
:1052D000012000EB0901019801EBE0710298014403
:1052E0000398401A401E0390E00306D4534621461B
:1052F000179A039800F05CF805441398007818B1E9
:105300005246179990476D1CE00323D5534621461A
:10531000179A039800F04CF805441BE0BBF1000F0E
:1053200007DB0098584504DD1098179910F80B001A
:1053300001E0179930205246904701980BF1010B7C
:10534000401E05F10105019004D12E205246179907
:1053500090476D1CB9F10001A9F10109DEDC05E0FF
:1053600017F8010B5246179990476D1C0299481E79
:1053700002900029F4DC53462146179A03989EE6D2
:105380002D0000002B000000200000002DE9F0415E
:10539000044600251E461746880404D405E0394615
:1053A0002020B0476D1C641EF9D52846BDE8F08169
:1053B0002DE9F041044600251E469046C80301D55C
:1053C000302700E02027880404D505E04146384610
:1053D000B0476D1C641EF9D52846BDE8F0810A6807
:1053E000531C0B60107070472DE9F041C1F30A5255
:1053F000A2F2FF362F4A304B0D460446142E2FDA08
:10540000002E12DAFEF76AFD00221346FEF7E8FED0
:105410004CD2002DA4BF0024254647DA25F00040D9
:10542000204318BF254D41D018E0DFF894C02CFA76
:1054300006F705EA070C5CEA040C08BFBDE8F0813A
:10544000FEF74CFD00221346FEF7CAFE2ED2002DB9
:1054500003DA4FF48010F0400544BD43002425E0FA
:10546000332EC8BFBDE8F081A6F1140C4FF0FF3712
:1054700027FA0CF73C4208BFBDE8F081FEF7D2FDE9
:1054800000221346FEF7ACFE10D2002D0DDA142ECA
:1054900008BF6D1C09D0C6F13400012101FA00F0EB
:1054A0002044A04238BF6D1C0446BC432946204618
:1054B000BDE8F0819C7500883CE4377E0000F0BFB9
:1054C000FFFF0F0010B5002821D0114B0022001F54
:1054D000196803E0814203D80A4649680029F9D1D6
:1054E00052B11368841A9C4204D1006818441060B9
:1054F000104602E0506000E0186039B102680B1AF3
:10550000934203D10B681A4402604968416010BDA0
:1055100094000020F0B50B30154D20F00701002459
:10552000144A0FE003688B420BD38B4205D95E1AF5
:1055300043184768C3E9006700E04368136002C08E
:1055400004E0021D10680028ECD12046002802D19A
:10555000286808B10020F0BD064A07481060074AD5
:10556000121A22F00702C0E9002401202860D7E7C0
:1055700098000020940000202C480020284A002099
:105580002DE9F04D1D460C4698B0174621F000411C
:1055900023F00043002814BF4FF0010C4FF0000C23
:1055A0000CEB440CFE4A0CEB02064FEA620C66451B
:1055B0002BD33E0018BF012606EB45061644F94AD8
:1055C000964222D3F84A53EA070C02D0944205D1FE
:1055D00048B918B000201146BDE8F08D002808BF7A
:1055E0004FF0000C01D04FF0010C0CEB440212F50F
:1055F000001F0AD8002F14BF4FF0010C4FF0000C11
:105600000CEB450212F5001F07D918B03A462B469D
:105610002146BDE8F04DFFF76FBA0022DFF88CA3FA
:10562000002CB8BF534526DADFF884C36345A8BF12
:10563000022220DADFF870C39C451CDCDFF874C35B
:105640000CEB235CBCF1140F08DDCCF1340627FA17
:1056500006FC0CFA06F6BE420DD108E05FB9CCF1AB
:10566000140623FA06FC0CFA06F69E4203D10CF04F
:105670000102C2F1020251EA000C19D1002D17DA21
:10568000002C18BF022A01D0012A07D00220FFF700
:105690005BFA18B0BDE8F04DFFF726BA0220FFF71D
:1056A00053FAFFF721FA18B081F00041BDE8F08D00
:1056B000B7F1000C6CD1534525D104F1804212F5AD
:1056C000801201BF00280020B74918B008BFBDE80C
:1056D000F08DB548884207DC002DA1BF6046294601
:1056E00018B0BDE8F08D07E0281E05DA80F0004113
:1056F00018B06046BDE8F08DAF497944D1E90001AA
:1057000018B0BDE8F08DDFF8A0C2634525D1002DAB
:105710001FDA19B1514512D1D8B909E0002840F07B
:10572000EC82A24A214618B062F31E01BDE8F08D5A
:105730000020214618B060F31E01BDE8F08D08DAA4
:1057400018B02346BDE8F04D024600206146FEF742
:1057500076BE18B02146BDE8F08D514518DAB5F196
:10576000804F0DD0A5F1005CBCF1FF5C10D1B4F10D
:10577000000C0DDB18B06146BDE8F04D00F0ECBB4D
:10578000234618B00246BDE8F04D1946FEF74DBC61
:10579000060024F0004C3BD1D9B1514533D1002C47
:1057A00006DD002DA1BF0020514618B0BDE8F08DE8
:1057B000002C01DD002D1BDB002C13DA002D11DB8A
:1057C000012A4FF0000014BF78497C4918B0BDE8A9
:1057D000F08D022A18BF002C0AD0012A08D1002C13
:1057E00006DA0AE0002CB8BF002D11DA012A04D035
:1057F000002018B00146BDE8F08D18B000204FF031
:105800000041BDE8F08DA1F14050B0F17F601AD0A9
:10581000012000EBE47050EA020421D0624C521ED9
:105820004FF0000B104304BF4FF0000B644C654871
:1058300083427CDD644A654893421FDD884217DB62
:10584000002D25DB37E0002C00DA4AB1022A0CBF1C
:1058500001204FF0FF3018B0BDE8F04DFEF757BC07
:105860000120FFF771F918B0BDE8F04DFFF746B918
:105870004D4A8A4202DC002D0ADC1CE0814202DA39
:10588000002D18DA04E0484B994220DD002D12DD8E
:105890000220FFF759F9FFF737F905460E460022B7
:1058A000534658462146FEF7C0FB18B066F31E016A
:1058B0002846BDE8F08D0220FFF746F9FFF72CF9E6
:1058C0000A46214618B062F31E01BDE8F08D0022A1
:1058D00030466146FEF7A3FB80460E466FF001029C
:1058E000FEF71CFE4FF05532394BFEF79BFB42464C
:1058F0003346FEF79AFB0022364BFEF793FB8246B7
:1059000042463346049110461946FEF78EFB524636
:10591000049BFEF78AFB8A4600904FF0C0422E4B54
:1059200040463146FEF781FB2C4A2B4B00E027E036
:10593000CDE9060151460098FEF777FB82460191BA
:10594000274A284B40463146FEF76FFB5246019BE3
:10595000FEF765FB82460B4602460591DDE906012E
:10596000FEF7BCFADDE90623002688463046FEF73E
:1059700056FB5246059BFEF755FB024600F07EB9EA
:105980000020B1F5801F07DA352230466146FEF768
:10599000C5FD06466FF0340000EB215024E0000006
:1059A000FFFF1F00FFFF0F000000F03F0000F07F2F
:1059B0000000404301FCFFFF3A0B00000000F0FF35
:1059C0000000F0BF0000E0410000F043FFFFEF3FA8
:1059D0005555D53F0000E03F4715F73FFE822B6548
:1059E00044DF5DF80BAE543EA0F2FF300190C1F3EE
:1059F000130040F07F6141F040510291FE4988421E
:105A0000D8BF002004DDFD498142C8BF012001DD6F
:105A10000D9008E000200D900198401C0190029824
:105A2000A0F5801002900299F54878440B910D99E9
:105A300000EBC100D0E900230F9330460A920B9986
:105A4000FEF7EDFACDE90601DDE90A2130460F9BAC
:105A5000FEF744FA02460B460020EA49FEF7EFFC47
:105A6000059102460B460090DDE90601FEF7DDFADE
:105A70001490E5488A464FF000087844029900687F
:105A800012904FF0005040EA61010D980F9B01EB1E
:105A9000804000F5002109910A9A1298FEF7BFFA9A
:105AA00032460B9BFEF7BEFA42465346FEF7BDFA5E
:105AB0000646029140465146099B129AFEF7B5FAF6
:105AC000DDE90623FEF7AEFA3246029BFEF7A7FA9F
:105AD000059B009AFEF7A9FA0091149A0490534688
